:10100000F08003200111000051C50100B9B00300B8
:1010100051C5010051C5010051C50100000000008B
:1010200000000000000000000000000051C50100A9
:1010300051C501000000000051C5010051C501006B
:10104000591100007911000051C5010051C501007E
:1010500051C5010051C50100CDCE010051C50100AF
:10106000FD11000051C5010051C50100F111000042
:1010700051C501008511000051C5010051C5010095
:1010800051C50100A9CF010051C5010051C50100A2
:101090006511000051C5010051C5010051C5010095
:1010A00051C5010051C5010051C5010051C50100E4
:1010B00051C5010051C50100000000000000000002
:1010C00051C5010051C5010051C5010051C50100C4
:1010D00051C5010051C5010051C5010051C50100B4
:1010E00051C5010051C5010051C5010000000000BB
:1010F0000000000051C501000000000051C50100C2
:101100001BF029FA0E480F490022814201D004C089
:10111000FBE70D480D490E4A814202D008CA08C0BB
:10112000FAE70C484FF47001026842EA01020260DB
:10113000BFF34F8FBFF36F8F18F01AF800DE000077
:101140006097032004F80320F08003205C970320BD
:10115000F031040088ED00E080B56F46BDE88040C6
:1011600034F0DABA80B56F460248BDE880401CF022
:10117000E0B800BFE0DD032080B56F46BDE88040E9
:1011800035F016BAF0B503AF4DF804BD154E00208A
:1011900030601CF0DDFD144D0446E869F0B94FF0F5
:1011A000FF30E861A86A78B1E96A88420CD0D6F8C5
:1011B00008140170D5E90A010130A862884204BF11
:1011C00005F120001CF088F8E8690130E86120464C
:1011D0005DF804BBBDE8F0401CF0DEBD03481BF029
:1011E0001BF900BF00D1004098E503206806040009
:1011F00080B56F46BDE8804035F07ABD80B56F465A
:10120000BDE8804035F0E6BDD0B502AF04460830F9
:101210000EF049FAC00708D0D4E900021144B1FB2E
:10122000F0F202FB10110120D0BD0020D0BDB0B5FE
:1012300002AF144605460FF036FBC0B2102805D1A8
:10124000D5E90101884201D023F00DB80220B0BDDC
:10125000B0B502AF144605460FF025FBC0B210280A
:1012600005D1D5E90101884201D022F0FCBF02205E
:10127000B0BDDCB504AF14460A4601460093002019
:10128000234620F0E1F9DCBDE0B502AF4FF0FF30BE
:10129000019000200090684609F01CFCF0B503AFF7
:1012A0002DE9000FADF5F15D83B0824644F2884030
:1012B00050440A9042F278400AEB000C0F910AF574
:1012C00052519CF8F8080DF589590B91CDF844C09E
:1012D000CDF838A0DFE810F0060071070913780098
:1012E00048003E00DCF8C007CCF8C407DFF8740BF8
:1012F0001BF0E8F9DFF8700B03211CF029FC1CF04F
:10130000DFF81CF0DDF81BF0C5FA1CF021FDDFF85A
:101310005C6BB179C90740F053870121B1711CF0B2
:101320003BFDAE49AE4AAF4CD1F8A400C0F3072054
:1013300045285BD9101D0D465A214FF05A08934697
:101340001BF010FFC0B22946B0FA80F0C4F85085F7
:1013500040094DE0DCF85009DCF8541908435FD02F
:101360004FF0010801F080B90B990CF5106501F6FA
:10137000EC02109291F8EC0888B3032840F0408703
:101380000B9CE3460C9504F58470099004F51770E6
:101390000D9094F85C0204F5187ADFE810F008006C
:1013A0004807A612D305A604B805BE0EE00504F54D
:1013B0008879D4E94281DDF838A05D4699E8410298
:1013C0000C9A099B00F002BC9CF82609C00740F06B
:1013D000FA86DCF804B9DCF800091090F7E1D1F8DE
:1013E000E088D1F8E408D1F8E81890E300209346AB
:1013F000109001F58D5012211BF0B4FE05465846A1
:101400001221D8461BF0AEFEE9B2C0B219B3109B50
:10141000B0FA80F2520943EA020502291CD11DE00C
:101420000CF5166004909CF86009002801F07187A3
:10143000032840F058850CF6781009909CF878093C
:10144000DFE810F00500FB065312A7075006DCF892
:10145000680900F063BF0125022803D1DFF8E00D21
:101460001BF03CF908F10800002101221BF082FE6C
:10147000C0B20521B0FA80F007224009054308F503
:1014800080701BF077FEC0B2B0FA80F149090D43BD
:10149000022804BFDFF8AC0D1BF020F9002D40F04E
:1014A00095860020C4F81005C4F8FC0001202060D7
:1014B000D4F8FC000028FBD0DFF88C1D00200122AE
:1014C0004FF0FF33082806D00C580430C4F8242508
:1014D000C4F82035F6E7444B4020444C0021444AF0
:1014E000C3F88001617118604FF00041414801600C
:1014F0004FF40001404881644049C1F804230122AF
:101500008A600A6001680029FCD100204FF4003194
:101510002074196001218DF84E00FA20ADF84C00BE
:1015200002208DF84A004FF48050ADF84800DFF8F3
:101530001C0D3030D0E84F2F002A40F02386C0E841
:10154000421F002AF6D14FF0800B4FF48010DFF8D5
:10155000002DBFF35F8F84F813B01421C3F880010E
:1015600012A8D0469A4637F079FE002800F130865E
:10157000002001212070A072E07101248AF800B3DC
:10158000DFF8C8BC584634F0B6FD002800F12286CA
:101590001199C246D6E84F0F002840F0F385C6E8FF
:1015A000404F0028F6D1701CBFF35F8FC1F8C80709
:1015B000002040F20111382800F0EE85383000EBB1
:1015C0000B0505F1180252E8003F23B942E8001369
:1015D000002BF8D114E0BFF32F8FECE76000001070
:1015E000041200100800004000E100E001E400E007
:1015F000020008000463004004150140001001408F
:10160000DFF8500C686205F1280009F059FA1198CA
:101610002946D0F8C4071BF0C7FB89480121894A35
:101620000DF516644160C0F808134FF40051C2F87C
:101630008011116006F11C01CAE90010204620212A
:1016400039F054FA50462146202202F0A6FF09F153
:101650000805214628460EF05DFD0AF108082946D6
:101660004FF49C72404639F09EFADFF8EC0B23F001
:1016700079FEB0F1FF3F40F38A8523F0CBFF0028CD
:1016800000F1858523F0DAFF002800F1808523F042
:10169000E9FF002800F17B8523F0F2FF002800F12C
:1016A000768524F009F8002800F1718524F012F8FD
:1016B000002800F16C8523F0F1FF002800F1678518
:1016C0000DF58051012081F820010DF5895102208E
:1016D0001CF0FAFB002840F05D850DF5805140F2CA
:1016E0000330A1F824014FF0FB100DF58951C9F822
:1016F000000003201CF0E8FB002840F04B85002090
:1017000000210022002523F079FE0446002800F184
:1017100084854FF4C050A0424FF0000038BF012034
:1017200088BF0125281AC0B258B1012840F06B8546
:10173000DFF8280B1AF0C6FF20461AF0B5FF1BF0A1
:10174000A9F80AF5A075BFF35F8F56E8060F28B910
:1017500046E806A00028F8D1012002E00020BFF3EF
:101760002F8F002800F04185DFF8F40AC9F8000047
:101770000DF5895023F0BCFFB0F1FF3F40F30A851F
:10178000DFF8E00A294623F003FFB0F1FF3F40F302
:101790002F852D490AF5CA5B48680968119A40F4FB
:1017A0004040CDF84080A2F824090020C2F820195A
:1017B000022182F8260982F81C09A2F8100982F891
:1017C0000C19C2F80089C2F804B9C2F808090AF570
:1017D000365C0DF5C7589CE87D0041467DC142F658
:1017E00098500AEB0001DFF8805A00265AF80000F2
:1017F000898827F8641C47F8680CB6F58E6F09D005
:1018000009EB060029464FF40E7239F0CCF906F5C3
:101810000E76F2E70BF5D86049464FF48E620D90D4
:1018200039F0C1F9DFF8446A0025B5F5D86F0DD05D
:1018300009EB05003146D82239F004F9D835F4E730
:1018400000D0004000E100E0600000100DF589517B
:1018500058464FF4D86239F0F5F84FF0000A2021CD
:10186000ABF830AB04A800F5DB59484639F03EF937
:101870000DF58954494620460EF04CFC0DF51660D6
:10188000214604304FF49C7239F0DCF809F107006E
:10189000182139F0D6F9A44604F1200098E87E001A
:1018A0007EC049460CF101001F2264460DF589599E
:1018B00039F073F90DF580500DF516654FF49E72F1
:1018C000C9F8F8A080F814A204F1FC002946C9E97F
:1018D0003BAAC9F844A0C9E90EAA39F0B3F80BF540
:1018E00033610DF58052C9F8AC17042182F8C41891
:1018F0000DF580520220032682F8AC180DF58052B7
:10190000C9F890044FF00108C9F810070DF5805090
:1019100082F894180DF5805180F824680DF58050F8
:1019200081F87CA8082180F818A80DF580500DF5E5
:101930008052C9F84017F72180F8A0A5A2F85018E6
:101940000DF580500D99C9F80C170DF5805180F8F0
:1019500060A337F8640CA1F8740B0DF5805157F8AB
:10196000680C81F8768B0DF58051C9F8500AC9F8DA
:101970000100D9F8530AC9F8040004F1F800C9F8C5
:1019800094A4C9F8A8A7C9F8B087C9F8B4A7C9F83A
:101990009CA7C9F890A7C9F894A7C9F884A7C9F863
:1019A00078A7C9F87CA7C9F86CA7C9F860A7C9F8D7
:1019B00064A7C9F854A7C9F84CA7C9F838A7C9F84B
:1019C0003CB7C9F844A7C9F82CA7C9F824A7C9F897
:1019D0001CA7C9F808A7C9F814A7C9F800A7C9F82F
:1019E000F0A6C9F8F4A6C9F868A6C9F860A6C9F8AF
:1019F00058A6C9F888A4C9F848A2C9F838A281F83D
:101A0000208104A901F5DB5104F02CF82846214679
:101A10004FF4F862AA4639F0C6F806A8202100F56E
:101A2000C85423F065FA1098214620220EF0C2FA1D
:101A300004A8214600F5DB55202222F093FD0DF588
:101A40008954294620460EF065FBDFF824180AF178
:101A5000F8000DF0ABFD0D4621464FF49C7239F0B5
:101A6000A2F82868DFF80C18013028600AF50E701B
:101A70000DF09CFD80F8408240F2BF7222F00AFD1A
:101A80009DF860490AF1010114A839F086F8DDF8E3
:101A900044C0022C8CF8268901F0E180DDF838A0E2
:101AA00042F279408CF8004014A9504440F2BF72D1
:101AB000644639F072F8E4484FF48076D4F8C88769
:101AC000C0F8806083460DF08DFDDFF8AC0790F81C
:101AD0004010012900F086830121002280F8401087
:101AE00004F510650168A44601310160CBF800607F
:101AF0000B9B08214FF4202083F8EC2803F6EC021E
:101B0000C3F8E088C3F8E408C3F8E8181092C5E900
:101B1000000100200221B0F5307F05D009EB000262
:101B2000583082F85510F6E742F698600DF5895165
:101B300050444FF43072664638F084FF0AF5365947
:101B400040F2676040F65D714FF0000BBF4AC6F887
:101B5000E00C4846C6F8E81C4FF4807186F838BFA0
:101B6000C6F844BFC6F8E4BCC6F8ECBCC6F8F02C16
:101B7000C6F8F4BC38F02EFAB54B4FF01411B54846
:101B80004FF4004C0B9C2A46C6F80C3A06F521632C
:101B9000C6F8401FB04983E8031004F58873042198
:101BA000DFF8D806AD4D83E8050204F517730D93F1
:101BB00004F58473C6F8085A3546C6F81CBA1646AA
:101BC000C4F800B184F85CB2C4E94281C4E9478139
:101BD00004F5927181E84102AB4635790993012DF4
:101BE0000C9240F2DF82DFF8980634681AF06AFD42
:101BF000DFF890864FF48060C047A800C047307976
:101C00001BF050FC3068C047002C08BF4FF4C024C4
:101C100025051AF03FFE0DF58959002D40F0C582CB
:101C20000B9DD5F828010079012840F2C18204EB10
:101C30000030C5F8380143F2BC50D5F81C115044AF
:101C4000C5E94C144FF4907138F050FF002005F5B1
:101C5000866885F8300405F59870C5F8600205F5CA
:101C6000187A002185F89912DFF81016C5E9A40149
:101C70004FF490710C30C5E99B010E9943F2E4607A
:101C80000C180F98214602680DF5895009F03AF9B1
:101C90000DF5805090F820610A2E03D123F040F911
:101CA00000F0D6BF0DF5805090F8285120460DF079
:101CB00063F922F06BFF50460CF0B9FF3EB9E8071C
:101CC00005D00B98D0F828014179012966D1DFF8B9
:101CD000B8051AF003FD0B9C00200E9984F8B80299
:101CE00043F2B0500844C4F860020F9804F5187A23
:101CF000514602680DF5895009F09EF822F0D0FE99
:101D000002D1042000F0A4BF50460CF0DEFF0020FA
:101D10000E9984F8980543F2B0500844D4E948215C
:101D2000D4F82C3104F5B365C4F87805C4F87C25E3
:101D3000C4F88015C4F884350895C4F890150121BD
:101D400084F868124649C4F88C254FF49072C4F8A0
:101D500064120021C4F88805C4F8CC050C30C4F81E
:101D6000943584F8D915C4F8A01584F8601204F5E8
:101D7000B461C4F8D015C4F8D4A5C4F8AC05C4F84F
:101D8000B0250E9943F624200DF5895622F074F9FA
:101D900022F086FE6CD1032001F037B9807901284A
:101DA00041F0C280DFF8E4041AF098FC0B9C0E9B13
:101DB000D4E9481004F51A7B006804F59368C4F868
:101DC00060020020D4F82C2184F8980443F2B0502B
:101DD000184404F58F6383E80304C4F8842404F5ED
:101DE0009163C4F8942483E8030400210222DDF8FF
:101DF00038A0C4F8A024012284F87012C4F86C1230
:101E000084F8D9144FF4907184F8682204F5946230
:101E1000C4F8CC040C30C4F8D024C4F8D4B4C4F84A
:101E2000AC04C4F8B01443F6241022F0ABFA0DF55C
:101E300089500AF0E5FBD9F80060092E40F0A9802E
:101E4000032000F013BF00BF00E100E0FA80FAC0F9
:101E500064005000060332010328140464001400D7
:101E600094DED7422E000000C0B0030098E50320A6
:101E7000A7F1380496E80E0022F086F957F8380CDE
:101E8000082841F02A810B9B0020012183F8700370
:101E9000C3F86C0383F8D9054FF49070C3F8B0050C
:101EA0000220D3F88825C3F8A00503F55A7083F8FB
:101EB000681303F5B461C3F8D40502F10C00C3F84C
:101EC000CC25C3F8D015C3F8AC050E9943F62420F1
:101ED0000DF5895622F0D0F822F0E2FD40F0AD80F9
:101EE000042001F092B89CF88009002800F0A1803D
:101EF000032840F09F819CF87C09002800F01181A4
:101F0000032840F0F781DCF8745900F0FBBC94F82A
:101F1000980504F5B3610891DFE810F00A00F801B4
:101F2000E70C09000800D30009087B08CDE728E783
:101F30000B9CD4F87805D4F87C25D4F88015D4F817
:101F40008435FAE694F8300404F58668002800F039
:101F5000E48003283FF491AECD481AF0EFFA94F8EC
:101F6000980404F51A7B04F59368DDF838A0DFE8DF
:101F700010F00800C901BC0C07004E00FC06630706
:101F800051E70B9C04F58F6AD4F884249AE8030483
:101F900025E722F07CFD082E40F0A2870B9B02254E
:101FA000D3F89424D3F8881422F0D2FED2F8E86350
:101FB000D2F83826C3F8CC140C31C3F87E2303F5CD
:101FC0005C72C3F8AC140321C3F8D4244FF49072AC
:101FD000C3F8A0147D21C3F8B02404FB01F283F8F8
:101FE0007053120B0025A3F87C2300FB01F283F849
:101FF000D9540CFB01F0120B03F59465000BC3F8E8
:102000007463C3F8D054A3F87A23A3F878030F9825
:1020100002680B9800F2A4440DF5895021460AF09D
:10202000EFFAD9F80060092E40F08080042000F01B
:102030001DBEDCF8645900F042BCA7F1680496E8C4
:102040000E0022F0A1F857F8680C082841F04580EE
:102050000B9B0226D3F89425D3F8881522F078FE3E
:10206000D2F8E853D2F83826C3F8CC150C31C3F8AF
:102070007E2403F58E62C3F8AC150321C3F8D42582
:102080004FF49072C3F8A0157D21C3F8B02504FB6E
:1020900001F283F87064120B0026A3F87C2400FB85
:1020A00001F2C3F874540CFB01F0120B03F5B46594
:1020B000000B83F8D965C3F8D055A3F87A24A3F8A8
:1020C00078040F980DF5895602680B9800F2A45514
:1020D000304629460AF094FA22F0E2FC39D1052074
:1020E00000F093BF0CF5206005909CF8000A0CF6F8
:1020F0007C1660B3032840F001810CF6FC100690BA
:102100009CF8FC090CF68414D0B3032840F002813B
:10211000DCF8F489DCF8F8090EE2DAF800000B9D2F
:102120009FE5DCF86C59DCF87009E7E322F0AFFCBE
:10213000082E40F0D5860B9A0020D2F88C14C2F8F5
:10214000A014C2F8A404C2F8A80400F096BD306838
:10215000ABE10DF5C75496E80E0022F015F8D9F85A
:10216000C007082840F0B9870B9A0020D2F88C15D8
:10217000C2F8A015C2F8A405C2F8A80500F0ADBDCC
:102180002068B3E143487921434A22F051FC00EA38
:10219000E07442E0044640E040481AF093FA0DF043
:1021A000B7FD40E03E4800F0C9BD3E4800F0C6BD66
:1021B0003D481A213D4A1AF090F93D481AF0BEF9FF
:1021C0003C4800F0BBBD3C481AF0B8F91BF00CF8D5
:1021D000054602E0054637F07DF838481AF072FAF5
:1021E00028461EE0364800F0A9BD364800F0A6BDDE
:1021F000044623F0FDF90020BFF35F8FB0610CE0CF
:1022000031481AF09BF931481AF05CFA20461AF06E
:102210004BFA1AF03FFB6FF015042D481AF052FAF2
:1022200020461BF0C9FB1AF035FB1AF07FFA29484B
:102230001AF084F928481AF081F928481AF07EF932
:1022400054000000530000007CE6030018E6032061
:102250006DDB010051AA0000DDDE01005500000029
:102260009902010085DE010020DA030058DC03003A
:10227000A0D50300B0D50300408103203CE4030057
:1022800033000000A9C60100180000001E00000075
:102290008CE4030080080400BC08040080000000F7
:1022A000A6000000A700000030E003004CE003009F
:1022B00050CF0300820000001CE203007C000000FD
:1022C000890000008B000000F8E503008A00000090
:1022D0007D000000DCE403002CE2030060CF03007B
:1022E000E0CF0300C0CF0300ACE40300CCE4030064
:1022F000D0CF03005FF818001AF020F95FF81C0037
:102300001AF01CF95FF820001AF018F95FF82400A1
:102310001AF014F95FF828001AF010F9CCF86C09DB
:10232000016C0522CCF87019406CCCF88019CCF8FF
:102330008429CCF8740942F6F850644650440DF0F4
:10234000B2F9C00700F09F800429C4F87C1913D8A3
:10235000D4F86C0901220844D44990F8490001F5E9
:102360004071202800F01F003CBF40F20851C5F228
:10237000000102FA00F008601AF090FE0022A44664
:10238000013041F1000184F89029C4F88809C4F8AB
:102390008C190F98E34601680AF538501BF01EF8B7
:1023A000DC46002840F0DF83C1480026DCF87C19B9
:1023B0004FF07D088146DCF87009814208BFDCF8E7
:1023C0007469182000EB460A032E42D8DCF86C0929
:1023D00009F10402B54B8119097D202938BF03F1A9
:1023E00008021268DCF87C49052C80F0F68301F0C5
:1023F0001F0100EBC40500EB840022FA01F1805DAF
:1024000001F00101814213D01AF048FEA0FB08023E
:10241000DC4601FB0821000B40EA015001040AD010
:1024200035F80A1029B1401A80B2132803D909E2FD
:10243000002025F80A00DCF86C090AF1020A00EB1A
:102440008401895D012904BF012180F8481001360B
:10245000BAE7DCF87C09042810D8DCF86C190844C9
:10246000924990F84900202800F01F0038BF01F180
:102470000409012101FA00F0C9F80000DDF838A0D4
:102480000DF5895957E7D4F86C09A44690F848101F
:10249000002940F054810021CCF87C098CF8001A06
:1024A0000CF5206105910CF67C16804A0021CCF8D1
:1024B0008009493001230BE0445C1546202C04F0D0
:1024C0001F0428BF05F54075013103FA04F42C60A0
:1024D0000529F1D100200CF684148CF8FC090CF6C7
:1024E000FC11DCF88009CCF8840906911430002135
:1024F0000022602A06D009EB02031832586001302E
:102500001976F6E704200DF58951C9F800000CF69C
:1025100088106422654638F095FA42F604600AEBAA
:102520000008D5F88809AC46C5F8EC89C5F8F0096B
:10253000C5F8F489C5F8F80900EB40000022C00096
:102540004FF0000A4346CDE907460D900D985045DF
:102550007BD008EB0A04207DC0B1032840F04983FA
:10256000A3461BF8100FABF10C01C8B1032840F0D3
:102570004483224612F80D0F551F00285DD0032812
:1025800040F03F831092267B0C9129E058F80A0016
:10259000A3464BF8040FCDF830B00BF80C2F04E035
:1025A000181D0C90086803F1100B254645F8080F1C
:1025B0006E1D6A603D490278A1F502711096202ACD
:1025C00002F01F0238BF4FF0A041022601EB82014A
:1025D000D1F8002766F31142C1F800270678267368
:1025E000302E80F000830F9999463248096800EB3D
:1025F000C600D1E900121AF0BAFE2C4806F01F01FD
:10260000202EA0F5027038BF4FF0A04000EB8100F3
:10261000D0F8000710F4403F4ED01099032009F184
:1026200018030AF1180ADDF844C00DF5895908703D
:1026300000228BF80000207588E703F10802286863
:1026400003F10D060C911546B4E705990320DDF85A
:1026500038A00870069908700420099908700320B2
:1026600004994FF000080870DCF8080ADCF80C1A2E
:10267000084341F094860A990790CDF83080087B92
:10268000002866D0032840F0D7829CF8300ADFE8A3
:1026900010F00500D7022C09AC01A201DCF8101AD9
:1026A000DCF8204ADCF8240A5FE000BF080500508F
:1026B0000C08005020DC032004F10C001AF0A8FDE7
:1026C00010980126067028460CF035FA0C988BF805
:1026D00000600CF03BFADDF838A026750AF538509A
:1026E0000CF002FF119C079884F8FC690CF0E4FEE2
:1026F000D4F880090DF58959D54AA046DDF820C0E7
:102700004930D44D002105290BD0435C1446202BC1
:1027100003F01F0338BF2C1D013106FA03F32360B9
:10272000F1E70599012008709CF88400032804BF94
:102730000CF108000CF0C0FED8F86C09C44600216A
:1027400080F84810DCF86C09C0E91011DCF86C095D
:10275000E6E500208CF8300AD1E900408968CCF821
:10276000204ACCF8240ACCF8101ACCF8180A002019
:10277000CCF8141A002566460BF042FBB64904F566
:102780000E700CF04BFF0A6890F84002013A0A60A4
:10279000002800F04E82D6F8180A06F6154BC6F847
:1027A000344A4FF4C041C6F8384AB446C6F83C4AE9
:1027B000C6F81C4A86F8285AA6F8145CC6F8100C0D
:1027C000002264468CF8792A4FF49072CCF8401AB3
:1027D0000CF52461CCF8700A0C30CCF8741ACCF8E3
:1027E0004C0ACCF8502A42F6BC600AEB00050F9860
:1027F000294602680DF5166008F084FB9DF8600913
:102800000A2805D10320A4468BF8000001F0C1BDC1
:102810000DF589560DF516614FF48472304638F087
:10282000C2F922F040F80DF5805090F820010528FB
:1028300000F0E980092840F0F580301D0BF0D8FE4B
:102840000320F0E0002025F80A00DCF86C1901EB09
:1028500084018A5D82F001028A55DCF86C19DCF88B
:102860007C29C1E910260121DCF86C2982F8481086
:10287000DCF87C29042A0FD8DCF86C391A44754B33
:1028800092F84920202A02F01F0238BF03F1040900
:1028900001FA02F2C9F80020DCF86C290DF589591B
:1028A000DDF838A002EB8402925D8CF880092006E6
:1028B00040EA06408CF878198518CCF864596748C6
:1028C0000068C00541F07885654864461DF0A6F9AA
:1028D0006449CA6B012A00F298810132CA630A680E
:1028E000A44604F6681001320A600022C4F8681990
:1028F00084F87C29C4F86C59C4F87009CCF8745970
:10290000CCF87809EEB20220022E8CF8740900F09F
:102910006081DCF87809514900688B460968C9056F
:1029200041F04A855049E0460CF040FE036B0C46EE
:10293000022200216BB390F8C01049B10F991C30EE
:102940000968D1E9001202F073F8290A324620E042
:10295000D0F8BC1000EBC101C1E90E53D0F8BC1097
:102960000131B1F1100218BF0A46D0F8B810C0F812
:10297000BC20914204BF012180F8C010D0E90012B0
:10298000013142F10002E0E802121DF037F90222A3
:1029900000212068C44601302060022A40F0E58012
:1029A0000124DCF868098CF87C49DBF80010C905C3
:1029B00041F002852D4965460CF0F8FD426BAC46AE
:1029C000013A426308680130086085F88049D5F80B
:1029D0005C0900F0A2BCDCF8380ADCF83C1A0843B9
:1029E00000F0D180012200F052BD9CF8150C0CF6CD
:1029F000154B002800F0AB80644603283FF4F3AE8B
:102A00001B4819F09BFDD9F801000121D9F80520D8
:102A1000A4468BF80010C1B2042940F09F80032027
:102A200001F0B7BC02200121A4468BF80010002160
:102A3000002200F0FE03022B3CD0C0073AD040F247
:102A40000110CCF82A1AACF8280AACF82E2A34E087
:102A50000C08005008050050C0D5030004ED00E04C
:102A6000DC080400F8DD032050DF030060DF030012
:102A70009CE40300A8DD0300A0CF030070CF030097
:102A8000C806040010D0030000D00300F0CF0300FC
:102A9000E4090400000C0400C80C0400C10000009C
:102AA00014E3030004E40300B8DD0300F0E40300D2
:102AB000C945000000208CF8290A42F6AC60DCF819
:102AC000188A504406F5487190E82C002CC10DF589
:102AD0001665314628464FF44E72664638F063F864
:102AE00042F6B8600AEB00090024294648464FF434
:102AF0004E72C6F8384AC6F83C4A38F054F80B9D76
:102B000042F6A06042F6A1625044524442F69461FB
:102B100042F68C6351445344C5E9131006F67850CD
:102B2000C6F8804DC6F8844D86F8784D85F8594032
:102B3000C5E91132C5F85480109043F2D81043F221
:102B4000E4115044514490E81C001CC1F1E39CF88E
:102B5000141CDCF8100C01F5C04131E6010C41EA0F
:102B60000241120C65E7032077E50320ACF87519E4
:102B70008CF880098CF87C09080C8CF87709042003
:102B80008CF874296CE542F6B8600AEB00099CF8F1
:102B9000780D0CF6785110910028CED09CF85C0D81
:102BA0000CF65C5868B103284ED19CF8500D0CF51A
:102BB000556448B1032800F0FE835FF8480119F01E
:102BC000BDFCDCF8580DC2E3DCF8300DDCF8341D38
:102BD000C9E35FF85C0118F0BDFC5FF86021204696
:102BE000052118F025FD5FF868213046302118F0E6
:102BF0001FFD5FF8700119F0A1FC5FF8740119F076
:102C00009DFC5FF8780119F099FC08680DF5895270
:102C10005FF88431013008600DF58051012081F8A2
:102C200020018C215FF8940100905FF8940119F065
:102C300067FC5FF8980181E05FF89C0119F07EFC69
:102C40005FF8A00119F07AFC5FF8A40119F076FC96
:102C50001099DC460D9A10700320042608708CF839
:102C6000F8680DF5F15D03B021F063BBDDE9101CE0
:102C70000D9A88F800000720EDE70B9C04F594609E
:102C800001F069FC49B10022C4F8AC04C4F8B014E6
:102C9000C4F8B424C4F8B8240DE0D4F89004006853
:102CA000002800F01D810021C4F8A004C4F8A41479
:102CB000C4F8A81446E043F63010504401F04BFC31
:102CC0000029DAD00B9B0022C3F8BC04C3F8C0145F
:102CD000C3F8C414C3F8C82458E00B9C04F5B460CE
:102CE00001F039FC49B10022C4F8AC05C4F8B015B4
:102CF000C4F8B425C4F8B8250DE0D4F890050068F0
:102D0000002800F00B810021C4F8A005C4F8A41528
:102D1000C4F8A815EEE00E9943F63020084401F0FF
:102D20001AFC0029D9D00B9B0022C3F8BC05C3F8BC
:102D3000C015C3F8C415C3F8C8250EE119F0CEFCC0
:102D400019F0F4FC43F62010504401F004FC0B9BF6
:102D5000002900F0C5800022C3F8AC04C3F8B01409
:102D6000C3F8B414C3F8B82476E043F6702021F019
:102D700009FB0DF5895009F043FCD9F80060092ED4
:102D800058D021F084FE082E40F0AA800AF5655044
:102D900001F0C7FB00298ED0DDF82C900DF5895489
:102DA000D9F8ACE4D9F8BCC491E86C0043F64C11F6
:102DB00051446CC40DF5895389F8DCC48C4689F8FC
:102DC000DEE489F8DD0493E874008CE874001022D6
:102DD00062F31F20C9F8E0040DF589500330142276
:102DE000D9F8884437F0D9FE01200DF5895189F8CA
:102DF000EC0443F66D105044172237F0CEFE042049
:102E000009F59C6189F8E804002089F8250609F590
:102E10009D60C9F820064FF49070C9F81C1604F1A3
:102E20000C01C9F81846C9F8F815C9F8FC050DF5E4
:102E300089599AE7052019E743F6482021F0A2FABC
:102E40000DF5895009F0DCFBD9F80060092E4FD050
:102E500021F01DFE082E43D143F63010504401F0FE
:102E60006DFB00293FF46EAF04460B9D40202246C7
:102E700060F31F220DF589500330C5F8BC242022D1
:102E8000D5F88864D5F8AC9437F087FE02200DF5AC
:102E9000895185F8C40443F645105044232237F085
:102EA0007CFE042005F2BC4185F8C004002085F8B2
:102EB000FD0505F59860C5F8F8054FF4907085F8A4
:102EC000E9940DF58959C5F8F41506F10C0185F85A
:102ED000E844C5F8F065C5F8D015C5F8D405ABE7EA
:102EE00021F054FE58460BF0AFFEDDF844B025E16A
:102EF0000620BBE60E9943F62020084401F02BFB88
:102F00000B9B49B10022C3F8AC05C3F8B015C3F858
:102F1000B415C3F8B82592E00DF589590899012038
:102F2000087050460BF0EAFEDDF838A006E10E9975
:102F300043F670300DF5895621F09EF821F0B0FD72
:102F400062D006A896E80E0000F5C85421F01CF9DE
:102F5000D9F8F807082840F0C080DDF8388008F577
:102F6000695001F0DEFA00293FF4D5AEDDF82C906F
:102F70000DF58954D9F8ACE5D9F8BCC591E86C00D9
:102F800043F64C2141446CC40DF5895389F8DCC5E6
:102F90008C4689F8DEE589F8DD0593E874008CE855
:102FA0007400102262F31F20C9F8E0050DF5895066
:102FB00003301422D9F8884537F0EFFD01200DF5D4
:102FC000895189F8EC0543F66D204044172237F00B
:102FD000E4FD042009F5BC6189F8E805002089F8C2
:102FE000250709F5BD60C9F820074FF49070C9F8AE
:102FF0001C1704F10C01C9F81847C9F8F816C9F8EC
:10300000FC060DF5895992E70620089908700520FD
:103010001EE60E9943F648300DF5895621F02CF83E
:1030200021F03EFD00F0838104A896E80E0000F533
:10303000DB5421F0A9F8D9F8500A08284DD1DDF861
:10304000389043F63020484401F078FA00293FF4E4
:1030500051AFDDF82C8004462022D8F8AC0507904B
:103060000DF5166037F099FD4020214660F31F21D1
:103070000DF58955C8F8BC15E81C0DF51661202220
:10308000D8F8886537F089FD0220294688F8C405FC
:1030900043F6452048442322A94637F07EFD079891
:1030A00008F2BC5188F8E905042088F8C005002022
:1030B00088F8FD0608F5B860C8F8F8064FF4907077
:1030C000C8F8F41606F10C0188F8E845C8F8F0666F
:1030D000C8F8D016C8F8D4069BE720460BF088FA4B
:1030E0000B9C012084F8980550460BF007FE5FF812
:1030F000741E00200E9B43F2B05284F895025FF8D4
:1031000054061A44C4E9A22143F2BC51C4F8900207
:103110004FF490701944C4E99A10DDF838A043F2D6
:10312000E06021F02FF90DF5895009F069FA21F0DE
:10313000B7FC01D106208BE521F0A9FC43F2B45085
:103140000B9D0AEB00010DF501604FF49472D5F868
:10315000304137F077FC012085F85C027CB1099B97
:1031600093F85401C11E042919D803F5AC70DFE8A7
:1031700001F003140E1109000BF059FD0FE0109936
:10318000DC4669E503F5B0700BF05EFD07E00BF07F
:10319000B5FD04E00BF005FF01E00BF096FD109982
:1031A00001204FF49472087042F6484050440DF5E7
:1031B0000161CBF8CC4737F045FC0DF580512E204E
:1031C0005FF8144781F820014846A0470DF580516B
:1031D0002D2081F820010DF58950A0470DF5805173
:1031E0002C2081F820010DF58950A0470DF5805164
:1031F0002B2081F820010DF58950A047B24C042006
:103200000DF58051B14D6060022081F820010DF56F
:103210008950A84708200DF580516060032081F88F
:1032200020010DF58950A8474FF080500DF58051D1
:1032300060601C2081F820010DF58950A8474FF0EF
:1032400000500DF5805160601D2081F820010DF5C2
:103250008950A8479E484FF400410DF589540160FC
:103260000DF580512F2081F820012046A8470BF250
:10327000CC7800200021282906D009EB010249F86A
:10328000010008315060F6E70DF63810214628227B
:1032900037F083FC5A4600200021052903D044F86A
:1032A00021000131F9E72F200DF6381182F84D0980
:1032B0008848C2F849098848C2F8140942F6905073
:1032C0005044282237F069FCDDF830C094E86E00E5
:1032D00060466EC042F2784100200A9A5144CBF811
:1032E00058C9DC468BF84809CBF84009CBF84409AB
:1032F000CBF8080ACBF80C0A8BF86009CBF8500918
:10330000CBF85409107390600BF51660C2E90018F1
:103310000490DCF85809CCF85C090021CCF8680965
:103320008CF878190CF678110991FEF7F7BF072091
:103330006BE6DDF844C00020DDF838A00CF65C58E0
:103340008CF85C0D43F2E4105044CCF8580D002189
:10335000CCF8300D8CF8501D43F2D5115144CCF807
:10336000341D0CF55564002243F22016CCF86C1B7A
:10337000011DCCF8680B0CF63C53CCF8441A0AF546
:103380003F510CF55465564408308CF8522A8CF89D
:10339000732C8CF8D92C0CF63852CCF8389DCCF81C
:1033A0003C1DCCF8406DCCF8445DCCF8483DCCF8E1
:1033B0004C2DCCF8D40C0DF5895B0F9A43F2BC1060
:1033C0000AEB0001584610F08FF80DF5895000689F
:1033D00003284ED00DF5805056460BF105011322FF
:1033E00090F824A106A800F5C85521F0BBF843F2D7
:1033F0002010064430460BF0F2FF48460CF004F86B
:103400000120BAF1210F207035D0119890F8500D9D
:10341000032805D130460BF0E2FF48460BF0F4FFDD
:1034200021F0B4FB04A81ECD00F5DB50BAF1200F4B
:103430001EC029880180A97881703FF47AAF0DF50C
:103440008050132280F820A104A90BF1010001F59E
:10345000DB5137F0A2FB0DF589512048204AC1F815
:10346000FC07C1F8F8B706A91E4801F5C85118F0C5
:10347000D1F8032020700320109988F800000DF582
:103480008959DDF844C00022DDF830800870DCF88E
:10349000800DDCF8841DDDF82CA050EA010340F01B
:1034A0006E870CF6885006909AF859000E9ECDE96A
:1034B0000332DFE810F019001A021A024B0163010F
:1034C0006001F805320600BF08050050ED45000018
:1034D0000C08005002031C1D2E2D2C2B99000100FE
:1034E00028E4030030B103000DF5805101200025D0
:1034F000A1F8B40D0DF58951DFF8E40E8AF85850A3
:1035000000F15C04C9F8505AC9F8545A2046C9F869
:1035100000501CF0CDFBDFF8D81E03221CF0E6FBA8
:10352000002840F0C8810DF580500DF58051A7F1BD
:1035300074080DF5895280F820514FF4C050A1F85D
:10354000210104A800F5DB51DFF8A8AE40468B4608
:10355000D04757F8746C0DF58950224631461CF05F
:103560000DFCDFF8942E0DF5895031461CF05EFC01
:1035700040461CF0ADFC0DF580500DF580510DF569
:10358000895280F8205141F60100A1F8210106A8D6
:1035900000F5C8505946D047D9F8F807D9F8FC17B4
:1035A0001CF0A0FC0DF580514D200DF5895281F8DD
:1035B00030015946CD48C9F80C00CD48C9F808007B
:1035C000CC48C9F80400CC48C9F80000A7F1800035
:1035D000D04706A8142100F5C85B584637F086FA94
:1035E0000DF58956142121F0F0F9DFF8F44D31463C
:1035F00004F1300528461CF0F1FD0DF580510E2038
:1036000081F8F0080DF5805146F21330A1F8EE086C
:103610000DF58051B948C9F8CA07B948C9F8C607B5
:10362000B848C9F8C2074CF2013021F0DBF957F86D
:1036300080ACA7F13808DFF8C43D0DF5C75240460D
:10364000CDE9006551461CF0E3FC57F8320C4534D7
:1036500047F88C0C594637F8340C089020461CF07B
:10366000BDFD0DF580514B2081F8F0080DF580511E
:1036700043F21450A1F8EE080DF58051A248C9F8A4
:10368000CA07A248C9F8C607A148C9F8C20749F63F
:10369000014021F0A7F9CDE90064A7F16804DFF843
:1036A000603D0DF5C752204651461CF0B1FC57F85D
:1036B000640C47F8880C37F8600C27F8840CA7F1E5
:1036C00080001CF005FC059004A90DF5895001F55A
:1036D000DB514FF4127237F0B5F90BF1280008F105
:1036E000100910900BF108004FF0010BA2460D904D
:1036F00004F1300009905FEACB704ED00DF589508F
:103700004FF0000BA9F804B04146C9F800B0C0F86A
:10371000F8B7C0F8FCB70D987CC97CC00988018057
:103720000DF5805080F838B910981CF02BFA06A9D6
:103730000DF5C75401F5C851302220F02DFF504639
:10374000214621F024FBDDF824A0D4E7514611F8EE
:10375000AB0F0991A1F14B09DFE810F00700C3009E
:10376000C7006601AB008902D202DAF86040DAE9EC
:103770002101099ACEE0E34600F0F6BC9AF868030E
:103780000AF55A78E346002800F09080032800F0FC
:103790002184DFF8540C18F0D1FE40461CF0F2F9F9
:1037A0000DF58959DFF85C1C48461EF03BFE50F8C9
:1037B00004EB0023DDF844A04FF02C0C734512D02D
:1037C00003FB0C0201339478062CF7D1948A002273
:1037D000082AF3D038F8026015460432002EF7D1DB
:1037E00028F80540EAE70868A7F16804DDF81880C2
:1037F00028220130086057E90E01582A04D0A31886
:10380000A05030325960F8E706A8A7F1680100F52A
:10381000C8543022201D37F0C0F90DF5C75021469D
:10382000342237F0BAF90DF5895009F10801D0E9D1
:10383000004606A800F5C8504FF4107237F002F9A0
:10384000A7F18C0006C8A9E80600089D0088022D93
:10385000A9F8000032D0CAF88C6D43F208200E9E01
:103860004FF41072CAF8884D06A9304401F5C851CA
:1038700037F099F900200DF5C751CAF8D00F43F27F
:103880004C403044342237F088F943F28240DDF86E
:103890002CA030440DF589510A22AAF8005037F0C7
:1038A0007CF90598AAF80C0000F0CBBCDAF860436C
:1038B00068E3644604E1DFF8784B2F260DF5895064
:1038C000DFF8783BC0F8504AC0F8546ADFF8640B60
:1038D000009004A9DFF8600B01F5DB522B2118F0F2
:1038E0000FFEDFF8080B18F029FEFEDE18AAFBD544
:1038F000BF074BE59836350A01469965450BBDE390
:10390000372E8DC28B12E8A24DE4CAFB3A97A0383D
:103910003B1C3D2ACAE9194043F22C50CAF86C10EE
:103920003158304447F8681C1F21D0F8030047F88D
:10393000650C43F20C503518CDF8149009922846C6
:1039400037F0D4F80DF58950A7F1680221462B46CF
:103950000AF02AFD0DF580500DF580510DF58052CD
:103960003546B0F82501A1F818090DF580500DF580
:10397000805192F82C2190F8270181F81A090DF551
:1039800080500DF5805121F0EFF90DF589500DF5BE
:103990008051D0E9049B91F824618168006880B16E
:1039A0000DF58050CDF834B0CDF840908A4690F8AF
:1039B0001A09934620F0ADFCDDF81490B0F8180910
:1039C000E4E00DF580500DF58053089190F81A0948
:1039D00083F8720B0DF580500DF580530D92B0F801
:1039E0001809A3F8700B43F210602C18DAF868007D
:1039F0001090204620F0F2FA0DF5805143F2355038
:103A0000CAE9309BB1F8701B20F004FE20F058FF8B
:103A10000DF58051DDF814908AF8B4602E4691F8C7
:103A2000721BAAF8BD80817043F234500DF589589D
:103A300035180F9A4046294601F0BEF90DF5805021
:103A400090F82061212E00F071840DF580500DF565
:103A500080510DF5895490F8230181F8620B0DF522
:103A600080500DF58051D4E901ABB0F82101A1F8E7
:103A7000600BE068109020690D9028460BF0DBFC8D
:103A8000202E40F0B7800DF580510020C4E900AB36
:103A90004FF4A02281F85C010023CDF8008004A837
:103AA00000F5DB54204600F0FFFF0E9943F238503A
:103AB00050220844214637F076F8119CDDF82CA0FE
:103AC0000F980AF1B8080DF5C75541460268284617
:103AD0000CF040FF0DF5805090F8E008212800F030
:103AE0003A8495E85E000AF170005EC040460BF033
:103AF000CAFC9AF87060202E4BD1DFF8100918F03C
:103B0000EDFD0DF5805200200E9D82F8180943F25C
:103B10000C50DAF8641006AA2B180DF5895002F53E
:103B2000C8520AF041FC0DF580500DF580510DF59D
:103B30008052B0F82501A1F8640B0DF580500DF509
:103B4000805192F82C2190F8270181F8660B0DF531
:103B500080500DF5805121F007F90DF589500DF5D4
:103B60008051D0E9043B109391F82461816800688A
:103B7000002848D00DF58050CDF834B08A469346E1
:103B800090F8660B20F0C5FBB0F8640B27F88C0C9E
:103B90004FE19AF878B01F2EDAF8741040F02381C4
:103BA000DAF86C300DF589505A4600F0E5FF0DF556
:103BB000805090F820611F2E40F06C830DF58950E5
:103BC000D0E90312D0F804A00DF5805010910DF546
:103BD000805190F82B410DF580500D92B0F829518D
:103BE000DFF8240891F828B118F078FD45EA044878
:103BF00020261EE10DF5805090F8620B20F089FB25
:103C0000B0F8600BEAE00DF580500DF58054089196
:103C100090F8660B84F81A090DF580500DF5805464
:103C20000D92B0F8640BA4F8180943F210602C1838
:103C3000DAF868000590204620F0D0F90DF58051A3
:103C400043F23550AAF8BD80B1F8181920F0E2FC13
:103C5000CAE9301B059920F033FE0DF58051DDF8DF
:103C600030808AF8B4602E4691F81A19817043F2B8
:103C700034500F9A34180DF58950214601F09CF804
:103C80000DF580500DF5895590F82061212E00F03A
:103C900057830DF580510DF580522046D5E901ABD3
:103CA00091F8231182F86A1B0DF580510DF58052B1
:103CB000D5E90384B1F82111A2F8681B0BF0BBFB16
:103CC000202E40F080800DF580510020C5F8F8A727
:103CD0000DF58954C5F8FCB74FF4160281F8540964
:103CE00006A800F5C85000902046002300F0DCFE36
:103CF0000E9E43F2385021465022304436F053FF96
:103D000043F2385034180F982146026806A800F58F
:103D1000C8500CF01FFE0DF5805090F81859212D59
:103D200000F002830DF580500DF5805190F81B09CD
:103D300081F86E0B0DF580500DF58051B0F8190922
:103D4000A1F86C0B0DF58950D0F804181091D0F83B
:103D50000818D0F8FC0708900DF580500D9190F8E8
:103D600020B90DF5805090F8230905900DF580508D
:103D7000B0F821A920460BF086FB1826202D56D03E
:103D80001F2D46D10B985A46C36E06A8089900F518
:103D9000C85000F0F1FE0DF5805090F818690DF54F
:103DA00080501F2E40F097820DF5805190F8230926
:103DB0002026B1F8211920F02CFBD0F8FC0791F84F
:103DC00020B9089033E00DF580500D94CDF8408077
:103DD00090F86A0B20F09DFAB0F8680B27F88C0C6D
:103DE0004FEA1B2825E09AF87B00BAF8792042EACE
:103DF0000048DAE91F02109043F2F1400D928A4622
:103E00000E9A135A104427F88C3C807807F88A0CD5
:103E10000FE005982E464AEA00480DF5805090F8CC
:103E20006E0B20F076FAB0F86C0B27F88C0CDDF8EE
:103E300020A00DF5805117F88A0C81F85E0B0DF566
:103E4000805137F88C0CA1F85C0B01210998212EC8
:103E5000017000F057820DF580500E9C43F2B14284
:103E60000D9DB0F85C0B4FEA1843A0520B9800F878
:103E7000306F80F82810A1180DF58052C372109B86
:103E8000182E92F85E2B8A70014641F804AFA0F814
:103E90000980C0E9033580F808B000F0D380202EF7
:103EA00040F01381DDF82CA091E86C000AF11004B9
:103EB00020466CC0DFF8600518F010FC012009F006
:103EC0009FFF0E9E4FF4525043F2AA4143F2A44387
:103ED000CAF820400DF589593058705043F2864099
:103EE000325831443044F250BAF804208A80F11834
:103EF00080888880DAF85000DDF844B00078F8B1A6
:103F00009AF814200DF58950DAF8101000F006FE2A
:103F1000DAF848400DF58050D9F800100023B0F8C9
:103F200024012278D2074FF000021CBFB4F80530FC
:103F3000D4F801205840514080B2084300F0048179
:103F4000DFF8D80418F0CAFB9AF814200DF5895050
:103F5000DAF81010DAF8544000F0E0FD0DF5805169
:103F6000D9F800000022CAF86043B1F824110AF51C
:103F70005A788AF86823090441EA104100040130A4
:103F8000CAE9180143F2E24043F2EB42315853468A
:103F9000B150052103F8681F0021304483F83D111A
:103FA0004FF49071C3F830410C34C3E9444113F825
:103FB000081C5970B11813F8074C8088888003F5E5
:103FC0003F70C3F8340104F5C0409C70C3F8FC0294
:103FD000C3F8383143F2F05034180F982146026884
:103FE00004A800F5DB55284608F00AFBD9F8500A6A
:103FF000092800F0BA8195E80E0048460EC020F06E
:1040000046FDD9F80000082840F09880DAF8500002
:1040100001248AF8684304700DF589509AF8142039
:10402000DAF8101000F07AFDDAF848000470D9F8D8
:104030000010C0F801100DF58051B1F82411A0F85E
:10404000051081E0DFF8C80318F048FB48461CF073
:1040500031FFDDF82CA0D749DAF868000968C905F6
:1040600040F0AA81DFF8AC130BF0A0FADDF844C0F1
:1040700005460E9E0C46DDF8308090F8C000012801
:1040800005D105F11C00E3461BF0B8FDDC4600201D
:1040900085F8C000C5E92E002168013121608AF849
:1040A0007C00CAF870900F9943F2F04030446446A7
:1040B000096800F0ADFAC0B2022800F03D810AF1B3
:1040C000600207CA0AF0EAFF32E0DDF82CA04FF0E8
:1040D000000849468AF8588090E87C00D1487CC1A5
:1040E000544644F8749F18F0EDFACF4818F0A2FA3D
:1040F000CE49204618F000FB18F0CCFB18F0CEFF9C
:1041000084F80C8010F58040DDF844C041F10001D6
:104110000E9EDDF83080C4E901010F9943F2F840AA
:1041200030446446096819F059F9002840F00E81BE
:104130000020DDF818808AF8580082E00DF58950DB
:104140000AF056FA20F022FD0020DDF830808AF8CF
:10415000680E8AF8C70A43F2A0403044CAF8600EDD
:10416000DAF85400CAF8B80A43F2E0400F99304434
:104170000CF080FDC0B2022800F0E0809AF8C70A77
:10418000DDF8188004381B281DD8DFE800F0110E78
:10419000C7110E0EC4171717170E170E17C1110EE1
:1041A000110E110E110E110E110E44F2500007E007
:1041B00043F6487030440AF0DFFE04E044F2580051
:1041C00030440AF0EEFE9AF8680E0AF5626405289B
:1041D00009D004280BD003281ED144F2F02030442B
:1041E0000BF093F903E006F586400BF040F90AF571
:1041F000656207CA0AF0B2FF0AF5646207CA0AF0EC
:10420000E9FE0AF5636207CA0BF028F8D4E9000159
:10421000DAF8282E0AF042FF814818F05FFA544677
:1042200054F8100F217900F0A3FDD4E902010A69C6
:1042300021469047217920680AF068FE002084F822
:10424000480067480025BFF35F8F0572002009F022
:10425000D7FDDAE91101D1460A68D1F8031047F811
:10426000382C47F8351C43F22C51046857F8380CA9
:104270007050314449F8604F57F8352CC1F803208D
:104280004A4659F8140C4146C9E9090802F84B5F3F
:10429000FFF740BB0DF580500DF5805190F82301DC
:1042A00020F037F8B1F82911B0F8210127F88C0C6B
:1042B0000DF5805090F82B0141EA00480DF589502A
:1042C000D0E9031210910DF580510D9291F828B1AB
:1042D000D0F804A0ADE590F81B090DF5805120F051
:1042E00018F8B1F82119B0F8190927F88C0C0DF558
:1042F000805090F8230920F08CF8D0F8FCA791F8B2
:1043000020B996E50320DDF844C0DDE90BA829E0DB
:1043100044F2B00054E744F2680051E743F64870B5
:1043200030440AF0D2FC4EE7062000E00320DDF81E
:1043300044C0DDE90BA812E0062008E0052019E0E2
:10434000DDF844C00520DDF82CA008E00720DDE9F9
:104350000332A44611E00420DDF83080A446099918
:1043600008700320DDE9033207E020F0D9FD0420C6
:10437000DDF83080DDE90332DC468AF85900B3FA13
:1043800083F082F00101400908431DD0DDF838A018
:1043900004208CF8300A03210A9A07981173B0FAA6
:1043A00080F088F001014009084308D00526FEF797
:1043B00056BC00BF04ED00E00A48FEF7BFBC42F661
:1043C000C850504405F026FD0E9942F6B0600CF539
:1043D0005864084405F00AFD204605F01BFD00BFA7
:1043E00098E5032095000000BCE40300F4E303001B
:1043F00014E4030019FD01004C090400DC09040069
:10440000DF090400900904003C0000005600000091
:104410009A00000070D00300300000003900000056
:1044200032000000960000001600000040EB030080
:104430001C09040018E403003C17040034E60300E0
:10444000416859B3F0B503AF2DE9C00B04680139D9
:104450004160684621460CF0FBF920F05CF90BD076
:10446000DDF80490B9F1010F3ED8684621460CF002
:10447000EFF920F050F914D19DF801004FF00071D0
:1044800000221143C0B201F04072B2F1007F08BFB8
:104490004FF040710843BDE80C0BF0BD4FF00070C9
:1044A0007047DDF80480B8F1040F1DD800264FF0E6
:1044B000FF35022D15D020460BF0DAFEC00715D1CE
:1044C000013501F07F00C5EBC50202F00F029040FC
:1044D000064348B20028ECD4022D0BD1C8B2032801
:1044E00008D940F201500EE00E20C7E7012061F329
:1044F0000B2006E006F00101B0B2494281EA50000B
:104500000004C10702D0C0F30320B7E7000C8DF808
:104510000280ADF800004FEA0961BDF801201202E7
:10452000AFE780B56F460246D0E90010814203D064
:1045300001F1100020F0BFBB002180BD80B56F46A7
:104540000246D0E90010814203D001F1200020F0A2
:10455000B2BB002180BD80B56F46416831B10139E1
:10456000416082680168531C836000E000211046AE
:1045700080BD824221BF0B18111A1846704780B5C2
:104580006F4620F069FA824221BF0B18111A1846B3
:10459000704780B56F4620F05FFAD0B502AF406833
:1045A00001230A440360002391420AD0D0F800415D
:1045B000002CFBD0C0F80031D0F8084501F8014BC1
:1045C000F2E701214160D0BD80B56F460078064911
:1045D000202800F01F0038BF4FF0A04141EA8000C2
:1045E0000421C0F8001780BD0003005080B56F465D
:1045F00000780649202800F01F0038BF4FF0A04186
:1046000041EA80000321C0F8001780BD000300507C
:10461000F0B503AF2DE9000F89B00191017B029045
:1046200021B1032907D1D0F8088009E0D0F8008033
:10463000C0F8048002E0414817F080FFC0F808800D
:104640003F49D8F808000968C90572D13E490AF007
:10465000ADFF00F138040646D0E9005B2046039127
:10466000D8E900A90BF0CEFF291A6BF10002BAEBD2
:10467000010379EB020304D2C8E9001200200021F3
:104680003BE0AAEB0105A84219D9D6E92E0196F81C
:10469000C020CDE90501401A1FF0A0FE049410408F
:1046A0008DF81C0004A829460BF01AF8D8B341680D
:1046B0000139416029430CD00068009017E001984F
:1046C000D0E9001206F1080000F0B2F90021012043
:1046D00013E004A821460BF0C0FF9DF8100002284B
:1046E00024D00498009006F11C001BF087FA20F0FB
:1046F000C4FBC8E9000101210020039B1A680132B4
:104700001A6020B919B90298D0F8048096E70121FF
:10471000002818BF032102980173009818BF0220D7
:1047200009B020F099B80A4816F014FF074816F0AF
:1047300011FF044817F0D2FF17F0F8FF30D0030044
:1047400004ED00E09500000080DF030050D003007E
:1047500040D00300F0B503AF4DF8048D80460868E3
:1047600090BB0D464FF0FF3101CA296095F89C10AF
:1047700039B1F0B192E8580008F1040158C10021A4
:104780001DE0D5F8981005EB0111486101F1180002
:1047900092E84A004AC0D5E925010131B1F1080289
:1047A00018BF0A46C5F89820904204BF012085F83A
:1047B0009C00281D18F090FD2868411C00202960ED
:1047C000C8F800001FF0F1BE044817F07BFF0BF0A3
:1047D000E9FA18F05FF817F0A9FF00BF85000000A4
:1047E000F0B503AF4DF8048D8046086830BB1FF06C
:1047F000ADFE07D084F00600304312D020F03DFA21
:10480000002016E01FF0D6FDD5E9260101318A1EF1
:1048100018BF0A46C5F89C20904204BF012085F8C5
:10482000A00005F1080018F057FD286800260624AE
:1048300001302860C8E900461FF0B7BE044817F0F1
:1048400041FF0BF0AFFA18F025F817F06FFF00BF2B
:1048500085000000F0B503AF2DE9000B8046086825
:1048600080BB4FF0FF308946086091F89C0038B15A
:1048700092E83A0008F104003AC0002101201DE04E
:10488000D9F8981009F1040092E8780009EB0111B9
:10489000143178C1D9E925120132B2F1080318BFE9
:1048A0001346C9F89830994204BF012189F89C1039
:1048B00018F012FDD9F80000411C0020C9F80010C2
:1048C0001FF0CCBC044817F0FDFE0BF06BFA17F09C
:1048D000E1FF17F02BFF00BF85000000F0B503AF2C
:1048E0004DF8048D8046086830BB1FF02FFE07D0BE
:1048F00084F00D00304312D020F0BFF9002016E004
:104900001FF058FDD5E9260101318A1E18BF0A465D
:10491000C5F89C20904204BF012085F8A00005F155
:10492000080018F0D9FC286800260D240130286002
:10493000C8E900461FF039BE044817F0C3FE0BF06B
:1049400031FA17F0A7FF17F0F1FE00BF8500000055
:10495000F0B503AF4DF8048D86B0944600918846BB
:1049600069460A1D9CE87840114681E87840D8F8ED
:10497000001089B94FF0FF310023C8F8001008F18A
:10498000040100F015F8D8F800000130C8F8000064
:1049900006B05DF8048BF0BD044817F093FE0BF0F1
:1049A00001FA17F077FF17F0C1FE00BF8500000085
:1049B000F0B503AF2DE9000B814691F8B800B0B116
:1049C00055686DB3D2F8008002F108063BB1186853
:1049D000D0E9003201F10800194618F08AFC96E887
:1049E0000E0009F108000EC0C9F800801CE0D1F8E3
:1049F000B40092E8781000EB800001EB80001030EA
:104A000080E87810D1E92C020132B2F1080318BF16
:104A10001346C1F8B430984204BF012081F8B800B1
:104A2000084618F059FC0025C9F804501FF010BEC4
:104A3000F0B503AF4DF8048DD0F8108004460E4653
:104A4000154621464FEAC80048B10A4608380831E1
:104A500053689D42F8D112689642F5D117E0B8F13B
:104A6000020F04D120461BF0C9F8D4F81080316839
:104A700028468847B8F1010F08D844F8380004EBFD
:104A8000C800416020690130206100E008B91FF0D2
:104A90008CBDC26808469047024817F01FFE17F009
:104AA00045FE00BF84000000F0B503AF4DF804BD23
:104AB0001C461546064618F0F1FA0022401986F801
:104AC000482061414022C6E910013046B9685DF8CE
:104AD00004BBBDE8F04036F060B8D4D4B0B502AF46
:104AE0000C460C491FF054FC45680346E0B2854271
:104AF00081BF1A684FF40E7310FB0320B0F8300228
:104B000081BF0A6801320A60B0BD034A294616F027
:104B10008FFD00BF0C090400A0D70300F0B503AF60
:104B20004DF804BD044601F5DA60114915461DF043
:104B300079FC43680246E8B2834216D913684FF401
:104B40000E7510FB053268435668185880F0020055
:104B5000304302D10020A08002E0908BA0809069B9
:104B600020601FF097FC1FF01DBD024A1FF05DFF83
:104B70000C09040030D80300F0B503AF2DE9FC07A1
:104B800004460E46084611469846154600F0F0F8D1
:104B90000DF10409414632462B46484600F076FEA8
:104BA0009DF804A0BAF11F0F05D10948257266606F
:104BB000C4E9038008E0601C09F101011FF08BFCCF
:104BC000304629460AF0A2F984F800A01FF010BF71
:104BD00080DD0300F0B503AF2DE9000F97B08046EC
:104BE00090F84400894668B1032840F0AF8098F8F7
:104BF000420008F11406D8B10328019649D055485F
:104C000017F09CFCD8F8000008F114063146D0F8E3
:104C100000A090F804B008F1040090E83C000020E7
:104C20003CC188F8420088F840B0C8F83CA003E0D6
:104C300098F840B0D8F83CA088F841B002A8019696
:104C4000314691E83C0045493CC00AF5DA601DF068
:104C5000E9FB43685B4575D900684FF40E721BFB96
:104C60000200B0F81022002A5BD000F50470102278
:104C700044881FF00FFC06AD02A920F0C7F808F128
:104C80002A0029461222A8F82840C8F824A035F0A6
:104C900084FF4446002154F828EF62686160002ACE
:104CA00042D008F130030DF1400C0CF10C0593E8F3
:104CB000430043C5D8F82450CDF85890CDE911E20F
:104CC00028681095A8BB0DF12C0A4FF0FF300CF1AD
:104CD0000402291D286050464B46FFF769FE1FF06D
:104CE00028FD0C9D55B1D8E90B0109F010FF9AE899
:104CF0004F004FC4032488F8424009E0D8E90B0173
:104D000009F005FF0198012488F842400AF053FB9E
:104D100088F84440002D18BF0125284617B01FF021
:104D20009BBD104816F016FC104817F0D7FC17F082
:104D3000FDFC0D4817F0C6FC0BF034F817F0AAFD87
:104D400017F0F4FC064A58461FF06FFE024817F0B1
:104D5000F5FB00BF30D9030090D003000C0904001C
:104D600040D9030050D903008500000083000000F3
:104D7000B0B502AF0C460D491FF00AFB456803466B
:104D8000E0B285420DD91A684FF40E7310FB032070
:104D9000B0F8100210B11FF07DFBB0BD054816F051
:104DA000D9FB034A294616F043FC00BF0C09040056
:104DB00070D9030080D90300F0B503AF2DE9000FCF
:104DC0009BB0804691F85C008A469346DFE810F07D
:104DD0000800270344033B002C001F004500C902C4
:104DE000DAE905C15246CAE907C10AF1240192E88D
:104DF000790079C100205446DCF8001004F8680FEF
:104E000001F5EC6044F8080C44E90C1134E0544618
:104E100014F8C80FDFE810F0050000032003D201EA
:104E20006C00DAF88050C3E1564616F8770FA6F109
:104E30001709DFE810F00500F102110364016500B5
:104E4000DAF864504BE1544614F8680F90B1032827
:104E500040F0E882DAF8640010E0544614F8C80F15
:104E6000DFE810F00500DA02FA02EF015600DAF886
:104E70008050E0E1DAF86000CAF864000AF0C2FB92
:104E80000646DBF800000D461FF00BFF307C0428BF
:104E900025D1022030741FF04CFC01208AF86800F4
:104EA000DAF8380000F5F5601EF01EFC9AF8245080
:104EB000DAE90A10DAE90C249AF82530DFE815F06F
:104EC0000B005F0046004A0030007700820055006A
:104ED0008E023C009100CAE9121013203DE02868C0
:104EE0002121013028600320207088F80010D3E1D0
:104EF0009AF8D400C00740F09882DAE9330563E1FC
:104F00009AF89000C00740F09382DAE9220506E1A2
:104F10009AF8D400C00740F08E82DAE9330595E1B3
:104F200000220123CAE912101020CAE91432AAF89B
:104F300058008AF840206CE000220124CAE91210CF
:104F40005801CAE914428AF840205CE0002201249A
:104F5000192017E0CAE912101220CAE9142400210E
:104F6000AAF858008AF8401053E0CAE91410022049
:104F700000220123CAE91232AAF858001FE00022D9
:104F800001241520CAF84410BAF82610AAF85800CF
:104F90008AF841308AF84040CAF84840CAF84C20A4
:104FA000CAF85040CAF85420AAF8421031E0002252
:104FB0000123CAE91210CAE91432AAF858308AF853
:104FC00040201EE201250024AAF858508AF84130FA
:104FD0008AF84050CAE91110CAE91325CAF85440AA
:104FE0000BE2C0B28AF8413040010AF144030430B8
:104FF0000126002556C3BAF826108AF84060CAF880
:105000005450AAF84210C1B2AAF85810C10640F193
:10501000F881DAE910120023CDE91012ADF814304E
:1050200011F00104049310AB04A918BF591C8B881C
:105030000968ADF81C30069118BF140E022110F05B
:10504000020F08BF0321CDF80CB04FF0000B08BFD2
:105050004FF0040BC00708BF8B46DAF82000DAF8DF
:105060003850D0E904011DF0EBF9CDF808808046F6
:10507000DAF82000D0E906011DF0E2F9DAF838206C
:105080005646DAF820104FF0000992F807C0D2F81F
:1050900000E091F8223091F8232091F82710002B9E
:1050A00006F8779FA6F11709F173BDF81C10B181BE
:1050B000069986F805B0A6F80180DDF80CB0B1605D
:1050C00046F8135CA6F80300F471DDF8088008BF09
:1050D00007221EF00100B27318BF6046B0710AF1DA
:1050E0007800CAF860500AF168011CC81CC105F1BB
:1050F0000802CAF88820028880780A8088700AF13D
:10510000880059460BF032FAC0B100200AF1680558
:105110008AF89000DAF860002030CAE922051FF012
:10512000B1FEC6B226B9284620F03EFF064660B161
:1051300001208AF877008AF8900092E0032030700E
:10514000212088F800000420A6E0DAF84C40012075
:105150008AF87700002C8AF8900042D048461F2138
:105160001F2635F0C3FCC34A1F2C38BF26464846CD
:1051700031460AF0F4FADAF84C20964200F2458102
:10518000DAF84820BC4B0093334614F0E8F8DAF81C
:10519000385008AC49461F22204635F0A1FC0AF1E0
:1051A000850021461FF016FB0020544604F8C80F66
:1051B0001FF088F905F10800CAF8CC001FF030FD97
:1051C000002875D01FF076FA1FF05CFEC6B2002EE4
:1051D00045D1284620F0EAFE064600283FD11FF0C0
:1051E00059FBDAF85440002C6BD00AF160091F21FA
:1051F0001F26484635F07AFCA14A1F2C38BF2646A8
:10520000484631460AF0ABFADAF85420964200F2EA
:10521000FA80DAF850209B4B0093334614F09FF845
:105220000AF18500DAF8385049461FF0D3FA002019
:10523000544604F8C80F1FF045F905F10800CAF8F4
:10524000CC001FF0EDFC60B31FF034FA1FF01AFE23
:10525000C6B226B9284620F0ABFE064678B31FF04A
:1052600019FB00254FF0000BDAF83C000AF030F98A
:105270000398A8F8020008F10A0088F809900A22A9
:1052800088F80840C8F804B088F8016088F8005031
:1052900018A935F082FC01208AF85C001BB01FF0D1
:1052A00048B803202070212088F800000620F3E78A
:1052B00003202070212088F800000520ECE71FF073
:1052C000E9FADAF8200043F609530168D0E902024E
:1052D00011F00105A0FB0304294614BF02FB0341A2
:1052E0002846B0F1005271F14E0280F0A7800024F0
:1052F0005646664A002306F8604FF47035F00AFD02
:10530000A6F8010056F8280C614900F5F5601DF07B
:1053100089F84268002A00F09A80036852001AB1A6
:1053200003F8024B023AFAE7002504224FF0010C81
:105330006AB143689D426BD20368043A03F815C012
:1053400003EB450316F8254001355C70F0E71FF0CC
:10535000A1F84FF48070AAF86D00DAF83800CAF8A6
:105360006800CDF808800DF140080AF164015A4642
:10537000404603F0DDFE9DF84050212D04D10299F6
:1053800021200870072087E708F10A010DF1540871
:10539000BDF842000A22039040469DF849909DF8CE
:1053A0004840DDF844B09DF8416035F0F6FB202D13
:1053B0000AD1DAF81C000024DDF8088020254FF01F
:1053C0000009D0F800B054E718A8B8E8060006C0F5
:1053D000B8F80010DDF80880018045E701250024B9
:1053E00006268AF84130AAF858608AF84050CAE97F
:1053F0001115CAE91340CAF85420BAF82600AAF8D1
:1054000042000E2530E7204B00E01C4B1FF05DF9F9
:10541000204A28461FF009FB114817F08FF814485E
:1054200017F08CF8114817F089F80E4817F086F835
:105430000D4817F083F8094817F080F8174817F05F
:1054400041F91DF019F817F025FA17F06FF9124815
:1054500017F044F917F06AF9FEDE00BFCCE903004B
:1054600020DE03001CE903003CE9030000DF030029
:10547000C0D00300D0D00300F0D00300E0D0030080
:1054800000D1030020D1030010D1030000204E0002
:105490001015040020150400CA000000A800000038
:1054A00080B56F468AB001460020069001A806AA82
:1054B000FFF7D0F9019801281CBF0AB080BDDDE9D3
:1054C00002010AB0BDE8804009F021BBF0B503AF8E
:1054D0004DF8048D0446002088600D4608460121E1
:1054E000984616461EF07CF8C0B2022818D128460D
:1054F00031461EF075F8C0B2022811D12846414647
:105500001CF0CCFFC0B202280AD1B96828461EF0B0
:1055100087F8C0B2022803D1A8686060002001E0CB
:105520006070012020701FF040B8D4D4F0B503AFF4
:105530002DE9000F8BB0FE688146B078062845D172
:1055400002AC0D4611461A4620461AF075FB8249F8
:1055500005F51270B6F814B00AF060F805468A46F0
:105560004FF00008B8F1300F29D005EB08062146AE
:1055700030461EF009F908F130080028F2D005EB9A
:10558000080106F128006FF00703C3B11FF0C4FC47
:105590005C45FAD102F10801FE680844DAF800100F
:1055A000A7F11E02022340880139CAF80010002129
:1055B00027F81E0C30461EF03DF9B07806E0DAF808
:1055C0000000FE680138CAF800000620042804BF65
:1055D000B17B11F0020122D00323D7E90412012884
:1055E00088BF831EDBB2D7F80880DFE803F00354DE
:1055F000233A1D00F3780220002B18BF10204045ED
:105600004CD3A0EB0804944228BF1446002C5CD075
:10561000574B2046351DFBF72CFE564A1DE040F245
:105620000120A9F8000055E0B8F1000F55D040F274
:105630000170F6E7B589B468AC42C0F08680454594
:105640002CD3A5EB0804944228BF1446ECB3434B7B
:1056500020467568FBF70DFE414A009205EB0802F3
:1056600030E0C0074FF0020418BF1024E01C804552
:1056700014D80020CDE9021204905FEA08403DD022
:10568000B8F1010F41D0B8F1020F45D1717802A8ED
:105690001DF0A6FF3DE0B068404505D2002089F826
:1056A0000000C9F8040015E0A0EB0804944228BFEC
:1056B000144654B12C4B2046FBF7DBFD72682B4B94
:1056C00000934244234613F04AFE0020C9F80440E8
:1056D00089F800000BB01EF02CBE022A02D240F660
:1056E00001609EE702207278C9F80400002089F862
:1056F0000000307840EA42000870EBE7F17C02A835
:105700001DF06EFFC0B202281CD1318802A81CF027
:10571000C5FEC0B2022815D1DDE9030290420BD0CC
:10572000F11C821A944238BF224602A81CF0DCFE0B
:10573000C0B2022806D104980021C9F8040089F8F3
:105740000010C7E740F201406BE7064B00202946F6
:10575000224615F009FF00BFC0D2030070160400F6
:105760008016040060160400401604005016040061
:105770002016040030160400F0B503AF2DE9000F29
:105780008FB01546D7E902421E463B6989468346DB
:10579000204631461EF04EF88246C00704BFA0786E
:1057A000062804D050460FB0BDE8000FF0BD2078A9
:1057B0002A460090607805914946019006AE04950E
:1057C00030461AF039FA2F490BF51270B4F81480EC
:1057D000039009F0EBFE05464FF0000B0291BBF180
:1057E000300F1BD005EB0B04314620461DF0CCFFDB
:1057F0000BF1300B0028F2D005EB0B011FF099FAEA
:1058000063B11FF089FB4445FAD102F10801009A07
:105810000844418821F001011144418002990DF1B1
:10582000180B049A1EF036FE584649461AF004FA40
:105830001549039809F0BAFE044689460026302E21
:105840001BD0A519594628461DF09EFF303600286A
:10585000F5D0A11905F128006FF007036BB11FF017
:105860005BFB4445FAD102F10801019A08444188E2
:1058700021F0020141EA4201418005991EF0C8FC75
:1058800090E700BF60D2030070D20300F0B503AF11
:105890002DE9000F91B0EB460C4680461146584664
:1058A0001A461AF0C9F9294904F5127009F07EFE6A
:1058B00082460020CDE908008946ADF83C0030263C
:1058C0000E9008AC5146B6B10D46084659461DF03B
:1058D0005BFF50BB284621460AF01AFB303E05F11B
:1058E00030010028EFD00120694685F820002846C5
:1058F0001EF08CFD1CE0AAF10604302000B3214606
:105900003038303491F82620002AF7D1881D012143
:10591000202280F82010694635F03FF90020002150
:10592000082905D060520431FAE7012085F82000EB
:105930001F2088F800001EF06BFC11B01EF0F9BCAF
:10594000034816F0CBFE1C20F3E700BFB0D20300E3
:105950007A000000E0B502AF024606480090C8B2E7
:105960000549FB2331F81000053081B205201BF0FA
:105970006BFE8CBDF0D2030000EC0300F0B503AF6A
:105980004DF8048D82B08C689046184B0E46054643
:1059900002202146FB22FBF76CFC154B5FFA88F2D4
:1059A00033F8122002230132ADF80420114A00928C
:1059B00001AA13F0D4FC0620A7F1120227F8120C5A
:1059C00002210D4802230090A01C13F0C8FC08F12E
:1059D0000100207196E80E00281D0EC01F202870BF
:1059E00085F8108002B05DF8048BF0BD00D3030091
:1059F00000EC030010D3030020D30300D0B502AFA6
:105A000090B001F5AC6104466846FEF7E9FEDDE9B9
:105A1000000180F0060008434FF0150008BF1F206A
:105A2000207010B0D0BDD4D4F0B503AF4DF8048DC4
:105A300084B0964691F80C8091E834009C466B4601
:105A400007491E4634C6624631F81810053189B23E
:105A50000391714602F038FF04B05DF8048BF0BD8D
:105A600000EC0300D0B502AF0C46084900F5A07069
:105A700009F09CFD0122D4F8033002702268C0F8BE
:105A8000012043601EF006FDD0BD00BF10D503000D
:105A9000F0B503AF2DE9000F9DB01C7880461F2C98
:105AA00015D051481D4616468A4693F801B016F0A7
:105AB00009FE4E4816F0BEFD28461EF07BF9032C69
:105AC00018BF4FF0080B16F0E5FE182C05D11F206B
:105AD00088F800001DB01EF02CBCB6F8100200289B
:105AE00060D0B6F8124217A81DF01AFF17980028C8
:105AF0005AD0A7F143000194C51C17A90C221EF02F
:105B000031FDA7F152002946C61C0C221EF08DFD66
:105B10001AAD31460C221EF025FD04A829460422A8
:105B2000FFF72CFF9DF81000DDE905549DF820607B
:105B30001F28DDF81C9038D1BDF821003146ADF8A2
:105B400008009DF823008DF80A004846FFF702FF81
:105B5000002945D080F800B05246BDF80800ADF8E5
:105B60001D009DF80A008DF81F004046CDE9045441
:105B70008DF81C60CDF8189004A9019BFFF754FF25
:105B800098F800001F28A2D00AAD98E85E002846C9
:105B90005EC0174816F096FD28461EF0FDF816F078
:105BA00079FE97E7052093E715209DF8131088F8F4
:105BB0000310BDF811109DF82320A8F80110BDF8BE
:105BC0002110ADF80C108DF80E2088F81060C8E98F
:105BD0000154C8F80C90A8F8111088F8132077E742
:105BE000044A1EF091FA00BFAC0000008F010000D3
:105BF000B100000070D50300F0B503AF2DE9000B34
:105C0000814601F5A0701249164609F007FDA0F182
:105C1000280580688846C0EBC000C40084B13835D0
:105C2000314628461DF0B0FD383C0028F6D005F17D
:105C3000200309F108040FCB0FC40021012001E06B
:105C400000200021C9E900011EF0E8FA1EF000BDA5
:105C500080D50300F0B503AF2DE9F007DFF86890B9
:105C60000E4680461546104669461EF0EFFE17495F
:105C700028460422C84731686C4620461EF007FCBF
:105C80001EF0DAFC71686C4620461EF000FC1EF027
:105C9000D3FCB1686C461EF0F7FE1EF0C9FCF1683B
:105CA0006C461EF0F1FE1EF0C3FC69461EF0DBFFE1
:105CB00000206C461EF08BFC404621461EF0E7FBA0
:105CC000BDE80F07F0BD00BFE902010060E403007A
:105CD000F0B503AF4DF804BDADF5487D044610BAEC
:105CE000699018BA6890B86800BA6790F86800BA06
:105CF000669001AD66A928460AF0EBFD3969284691
:105D0000134E2022B047796928462022B047B8694F
:105D100001228DF8980166A92846B04766AE29464B
:105D20004FF4C272304634F08DFE62A831460AF05C
:105D30002CF962AB0FCB12BA00BA09BA1BBAC4E98C
:105D40000032C4E902100DF5487D5DF804BBF0BDDA
:105D5000E9020100B0B502AFADF5487D00BA699027
:105D600008BA689010BA679018BA669001AC66A934
:105D700020460AF0AEFDB9682046104D2022A84703
:105D8000F96820462022A8471EF0D6FA66A92046C8
:105D9000A84766AD21464FF4C272284634F052FE41
:105DA00062A829460AF0F1F86598054900BAB0FBE7
:105DB000F1F202FB11000DF5487DB0BDE9020100D2
:105DC00040420F00F0B503AF4DF804BD88B0044663
:105DD00000206D46CDE90200CDE9000008462946C5
:105DE00010220AF0E7F804A895E84E004EC004AB74
:105DF0000FCB41EA030540EA020635431FBF0FC43B
:105E000008B05DF804BBF0BD044816F05BFC04A8C4
:105E100009F0B0FF16F03EFD16F088FCC30000004C
:105E2000F0B503AF4DF8048DADF5487D01AD80466A
:105E30001E46144628460AF04CFD20BA699030BA36
:105E40006890B8681022284E00BA6790F86800BAC7
:105E5000669066A92846B0471EF06EFA66A92846E5
:105E6000B047386A102200BA6990786A00BA689020
:105E7000B86A00BA6790F86A00BA669066A92846C0
:105E8000B047386B0322ADF89801000C8DF89A01E9
:105E900066A92846B04766AC796B1EF0F5FD28462A
:105EA00021460722B04766ACB96B1EF0EDFD2846CF
:105EB00021460722B04766AC29464FF4C2721FF054
:105EC0001AF862A821460AF060F862AB0FCB12BA4A
:105ED00000BA09BA1BBAC8E90032C8E902100DF5C8
:105EE000487D5DF8048BF0BDE9020100F0B503AF19
:105EF0004DF8048D8EB0054608A888461DF010FDAB
:105F00000898C0B1A7F1370008A9C61C0C221EF0E2
:105F10008CFBA7F146003146C41C0C221EF03CFB52
:105F20000BAE21460C221EF080FB2846314642462D
:105F3000FFF724FD01E0152028700EB01EF035BBE0
:105F4000F0B503AF2DE9000F89B0044604A8022183
:105F500099469046FFF7CAFF9DF810501F2D10D1AB
:105F60001EF0E0F8FA6810230792BA680692074A12
:105F7000CDE90489009204AA13F0F1F91EF0B0FDF6
:105F800001E01EF0A3F825701EF052B980D6030080
:105F9000F0B503AF2DE9000F89B0044604A8032132
:105FA00099469046FFF7A2FF9DF810501F2D10D183
:105FB0001EF0B8F8FA6810230792BA680692074AEA
:105FC000CDE90489009204AA13F0C9F91EF088FDF6
:105FD00001E01EF07BF825701EF02AB990D6030070
:105FE000F0B503AF2DE9000F99B003AE04462022AF
:105FF0000D461EF01AFB05F120010BAD20221EF00C
:10600000B1FA304609F0BDFB284609F0BAFB14A8E6
:106010000B21FFF76BFF9DF850A0BAF11F0F39D18C
:106020009DF86080DDF85C90BDF861009DF863101C
:10603000DDE915B2ADF84C00A4F8110048468DF822
:106040004E10E17441460292FFF784FC1F4B054657
:106050000E46202029463246FBF70BF91C4A202326
:10606000009203AA13F07BF91A48402100902020E7
:106070002A4633461BF0E8FA174A202300920BAA5F
:1060800013F06DF9029884F81080C4F804B0C4E9E4
:10609000020915E09DF85300E070BDF851009DF82D
:1060A0006310DDE91556A4F80100BDF86100179AE8
:1060B0009DF86030ADF84C008DF84E101EF03CFDA0
:1060C00084F800A019B01EF034B900BFA0D60300B8
:1060D000B0D60300C0D60300D0D60300F0B503AF9E
:1060E0002DE9000F89B0044604A80C219B46924676
:1060F000FFF7FCFE9DF81080B8F11F0F31D19DF81D
:106100002060DDF81C90BDF821009DF82310059A51
:106110000292069AADF80C00A4F8110048468DF8DA
:106120000E10E17431460192FFF714FC0246F86844
:10613000194B0D4607901146B8682A460690102064
:10614000CDE904ABFBF795F8144A1023009204AA9A
:1061500013F005F90298606001982674C4E90209F9
:1061600015E09DF81300E070BDF811009DF82310B4
:10617000DDE90556A4F80100BDF82100079A9DF855
:106180002030ADF80C008DF80E101EF0D5FC84F810
:1061900000801EF04DB800BFE0D60300F0D603002B
:1061A000F0B503AF2DE9000FADF26C4D06460DF5CD
:1061B0003A7B013089461E900BF1100A59F8080B02
:1061C00098460D461F92C00745D0DFF8741F05F5AD
:1061D000D4701D961C901CF0CDFE024624A80C46DF
:1061E00011460DF029F92068DFF8581F01382060AA
:1061F000484609F0DBF99DF8904005460E2005F170
:1062000008061E2C88BFA4F11F00C0B28E460728C6
:1062100000F25386DFE810F00800A202AD0078011A
:106220007C000A051D0696011F98C0B2002840F0A8
:1062300014861A96BAAEBA6841463046F2461BF04A
:106240009BF99DF8E802022841F0EE80DDF8749099
:106250000A2001F0A9B9DFF8F01E48461CF08AFEBA
:1062600002462AA80C4611460DF04EF82068DFF8C9
:10627000DC1E0138206005F1200009F097F9834603
:106280009DF8A8000D460F211E2888BFA0F11F0110
:10629000C8B2092838D80BF10804DFE810F00A006A
:1062A0002A014F04B6051906350035004C00AA0333
:1062B000E8031F98C0B20A2840F00F86F968AA4682
:1062C000886A90F832020C308BF8CE00BAAD2846BE
:1062D00003F0D4FCDDE9BA8405F1080188F003007D
:1062E000204341F0D0800DF5B07CB64691E87900AE
:1062F000624679C2704676469CE83E003EC05546EE
:106300009EF8004000F0F5BD1F98C0B200F0E5BD5A
:106310001F98C0B2022840F0A085B868102841F04C
:106320006180CDE91A6E24A8023041461EF0AFF814
:1063300001202324FFE01F98C0B2022840F0CD8541
:10634000B868102840F0FE851EF087F8D4E92001D7
:10635000D4E91E23CDE90001BAADF968284602F060
:106360003FF99DF8E8421F2C41F04480272001F0BE
:1063700033B91F98C0B2032840F06F85B868102861
:1063800041F03380D8F80910B246D8F805007446B9
:106390000A021A9642EA1062B267D8F80120000297
:1063A00040EA1260706798F80F00B8F80D3043EAC1
:1063B0000040000240EA1160F06798F80000B04623
:1063C00040EA022058F8602F4AF8700FD8F80C10F5
:1063D000D8E90130CDE9000158AE3046FFF7D8FDCD
:1063E0009DF860011F2841F0CB80199531461B9420
:1063F0002AA8841C043110225E462046894634F0C7
:10640000CCFB42A82146851C1DF00EFF54AC29464A
:106410001DF0CCFF32ADF9682246284603F0E9FAB8
:106420001EF080FA41F0B481199E96F8D200C007A0
:1064300001F0A383B6F8D30006F1D701ADF8C80088
:10644000132296F8D5008DF8CA00281D96F8D6407C
:1064500034F0A3FB05F1170006F1EA01292234F01C
:106460009CFB96F813018DF8CB40C00701F08583A3
:10647000B6F81401ADF8600196F816018DF86201C6
:1064800006F58C7096F817B11EC8A9E81E002922DF
:1064900001888078A9F8001006F22B1189F8020013
:1064A0000DF5B07909F1170034F077FB8DF863B181
:1064B000BAE80F0098E81050D8F80C80CDE90059E0
:1064C00002AD85E81050CDF81480FFF743FC054677
:1064D00096F8D000022841F0B485DFF8740C16F06D
:1064E000F1F8284616F0F8FF16F0D4F9262401F04A
:1064F000C2BD1F98C0B2012800F02B870A2840F0C7
:10650000EC84202001F069B81F98C0B20C2840F03C
:10651000A4849DF89100002840F05D87B868102899
:1065200040F06087CDE91A6E24A8023041461DF084
:10653000AEFF012022248DF891008DF890401A9E24
:1065400001F075B81F98C0B20C2840F0868495F809
:106550005401002800F055873046B14606F1740317
:1065600050F860BF4C46189054F8700FAA460ECBF6
:1065700000BACDF86CE0D6E919CEF66E539008BAA1
:10658000529010BA519018BA50909BFA8BF05790D5
:106590009CFA8CF01794DAF8904156909EFA8EF09F
:1065A000D5F88D51CDF833414C95DAF88951559095
:1065B00030BADAF88641CDF83B514E9454904EA84B
:1065C00045904CA8449054A8439050A842905F48EE
:1065D000BD905F48BC905F48BB905F48BA9058AD93
:1065E000BAAC284621460AF074F90AF25511284639
:1065F00020221CF04BFB00202146CDE9BC00CDE958
:10660000BA0028461CF0C6FB2AA994E86C0008468C
:106610006CC0BAAE30460AF05CF932AC42AD3246DC
:106620000023204629461CF0C5FB2AA829463246ED
:1066300001231CF0BFFB2A981A902B9819902C98D4
:1066400016903046DDF8B4B094E82E002EC00AF55E
:10665000BB7501208AF87501284631461DF017FFE9
:106660009BFA8BF04C4644F8800F1A98169A00BAA1
:10667000E06054F8400C12BA149054F83C0C13909B
:106680001798199954E90EB6006809BA1690D9F806
:1066900074001590D9F878001290D9F87C00119008
:1066A0001898C4E90121CDF8689000681090D9F8D5
:1066B00064000F90D9F868000E900AF1C400D9F870
:1066C0006C901BF033FFDAF8902120F07F40DAF86D
:1066D0008D11CDF863215891DAF88921DAF8861105
:1066E000CDF8EB22BA912946CDF864A0CDE908B6E1
:1066F0000A9058A80B90BAA80C9082461298009065
:1067000011980190109802900F9803900E98CDE97F
:106710000409A94614980690139807902AA8DDE961
:106720001532FFF77DFBB868102806D12AA841462C
:1067300009F01BFC002801F042800B254FF0030BF1
:10674000DDF87490DDF86CE000F060BE5A6083BE46
:1067500060370BDBAAF5A5386C8883911F98C0B20F
:106760000B2840F07A83CDE91A6EBAAEBA6841467A
:1067700030461CF073FB05F1D3084FF00109314698
:106780004022404685F8D29034F007FA0DF1A80B6C
:106790003969584603F0E6FA58A859461BF0BEFF7F
:1067A000B5F8D30005F1D801ADF8E802122295F84A
:1067B000D5008DF8EA02701DB5F8D64034F0EDF939
:1067C0001EF00FF8ADF8EB4232AC59463246204687
:1067D0001CF00EF89DF8C800C00700F02E869DF84A
:1067E000CB00A11D8DF83A011222BDF8C900CDF8E9
:1067F0006080ADF83801BDF8CCB042AE1DF015FF99
:1068000004F1180054A918C80A4618C2007810707C
:1068100050AC0CC920460CC00978017005F5AA706F
:1068200008F0A6FEBDF838013146A5F85501122240
:106830009DF83A0185F8570105F5AD70A5F858B1F6
:10684000B34685F8549134F0A8F906CC05F5B67036
:1068500005F58A7606C0402221780170304685F819
:10686000139158A934F099F90DF1A80805F1A40085
:106870002022C5F8A090414634F08FF958AC31463B
:106880002046FFF7ADFBDDF874909DF860011F28EE
:1068900040F07E86199508F10205211D1DF0C4FC0B
:1068A0000BF1020429461DF081FD54AD21461DF077
:1068B000BBFC32ACF9682A46204603F09AF81EF079
:1068C00031F841F03680199D95F8D000023838BF74
:1068D0000220C0B2022801F02382032801F088843C
:1068E0003969BAA8B346FFF76DFADDE9BA320DF59A
:1068F0003A7CDDE9BC101A9E95F81341012CC6E9DB
:106900001832C6E91A1041F03C83DDF86CE095F8C6
:10691000D2400025012C41F0EC8309BA0DF5B07886
:106920001BBA12BA00BABA90BD934046BC920CF1A1
:106930000109BB91BAA909F0CCFFDFF818A84046BD
:1069400059462022D047189940462022D0478DF83A
:10695000E852BAAC404601222146D0472046414683
:106960004FF4C27234F06EF8CDE92C5504F5B871CD
:10697000CDE92A552AAA204609F01AFC2AAC17CCE0
:1069800013BA22BA00BA09BAC6E90C23C6E90E1036
:10699000CDE90010BAA8FFF7D3FA1DF059FD41F078
:1069A000F58309F103030DF53A780FCB42AC0FC420
:1069B00042AA4046F96803F01CF89DF8E8021F2837
:1069C00014D032AE98E83E0030463EC0DFF888076B
:1069D00015F078FE30461DF0DFF915F05BFFBA9B2D
:1069E0005FFA83FBBBF11F0F41F0F283212401F01A
:1069F00022BB1F98C0B2032840F06F82B8681028ED
:106A000040F01E852B99D4E912A0CDE91C5601F067
:106A10007F06656DC6F140021990206D18912946D8
:106A20001A9033F0C1FA199932461B90504633F050
:106A3000A5FA1990A6F140021A98294633F09EFA59
:106A4000402E1B99199A38BF42EA0100002E08BF58
:106A500050469BF81B11012904BF9BF8DA1001294D
:106A600000F0E8870524DDE91C5600F0EABC1F9819
:106A7000C0B20C2840F031829BF87D011D960128A0
:106A800040F0E484A06F1A90E06F1990D4F8800071
:106A90001890D4F884001790D4F888001B90D4F88C
:106AA0008C001C90D4F890001490D4F894001390AB
:106AB000A06C1690E06C15900BF1D200D4E9146A2A
:106AC0001BF034FDDBF8982120F07F40DBF89511B6
:106AD000CDF863215891DBF89121DBF88E11CDF8C8
